:020000040000FA
:06000000F7EF03F012000F
:020006001200E6
:0800080007EF00F01200DACF4F
:10001000E4FFE2CFDAFFE9CFE4FFEACFE4FFF6CF77
:10002000E4FFF7CFE4FFF5CFE4FFF3CFE4FFF4CF35
:10003000E4FFFACFE4FF00EE00F0020EE80403E371
:10004000EECFE4FFFBD700EE02F0020EE80403E37C
:10005000EECFE4FFFBD7E652F2A203D0F292F5EC2A
:1000600002F0F0A203D0F0921EEC03F0E55200EE95
:1000700003F0020EE80403E3E5CFEDFFFBD700EE4B
:1000800001F0020EE80403E3E5CFEDFFFBD7E5CF77
:10009000FAFFE5CFF4FFE5CFF3FFE5CFF5FFE5CFBE
:1000A000F7FFE5CFF6FFE5CFEAFFE5CFE9FFE5CFC4
:0400B000DAFF110062
:0C00B40001000A080000000F00004B00D3
:0200C00000003E
:0E00C200320EE66ED0EC03F0E5521200D9CFFC
:1000D000E6FFE1CFD9FF8994400EC96E9EA6FED7F8
:1000E0009E96120EC96E9EA6FED79E96FE0EDB5001
:1000F000C96E9EA6FED79E968984E552E7CFD9FFAA
:100100001200D9CFE6FFE1CFD9FF8994400EC96E26
:100110009EA6FED79E96130EC96E9EA6FED79E96ED
:10012000FE0EDB50C96E9EA6FED79E968984E552D0
:10013000E7CFD9FF1200D9CFE6FFE1CFD9FF800E7C
:10014000E66EC5DFE552140EE66ED0EC03F0E55224
:10015000FE0EDBCFE6FFD5DFE55200000000000019
:100160000000C00EE66EB3DFE552000000000000A4
:10017000000000000000E66AAADFE552E552E7CF82
:10018000D9FF1200D9CFE6FFE1CFD9FF800EE66E8E
:100190009EDFE55296DFFD0EDBCFE9FFFE0EDBCFE3
:1001A000EAFFEF500A081FE0FD0EDBCFE9FFDB2A74
:1001B000FE0EDBCFEAFF01E3DB2AEF50E66EA1DFA4
:1001C000E5520000000000000000C00EE66E7FDF78
:1001D000E552000000000000000000000000E66A98
:1001E00076DFE552D8D7E552E7CFD9FF1200D9CF55
:1001F000E6FFE1CFD9FF140EF36EFC0EDBCFF4FF68
:10020000F350F45C05E2140EF36EFC0EF3CFDBFF4B
:10021000800EE66E5CDFE55254DFFD0EDBCFE9FFBA
:10022000FE0EDBCFEAFFEF500A0825E0FD0EDBCF24
:10023000E9FFDB2AFE0EDBCFEAFF01E3DB2AEF500A
:10024000E66E5FDFE5520000000000000000C00E17
:10025000E66E3DDFE55200000000000000000000F7
:100260000000E66A34DFE552FC0EDBCFE6FFD0EC9F
:1002700003F0E552D2D7E552E7CFD9FF1200D9CF2C
:10028000E6FFE1CFD9FFE66A22DFE5521ADFFE0E74
:10029000DBCFE6FF36DFE552000000000000000083
:1002A000400EE66E14DFE552000000000000000082
:1002B00000000000E66A0BDFE552E552E7CFD9FF08
:1002C0001200800EE66EDBDFE5521200C00EE66E15
:1002D000D6DFE5521200010EE66ED1DFE5521200C4
:1002E000D9CFE6FFE1CFD9FFE66AF1DEE552FE0E97
:1002F000DBCFE6FF06DFE552000000000000400E05
:10030000E66EE5DEE552000000000000000000009F
:100310000000000000000000E66AD9DEE552E55268
:10032000E7CFD9FF1200D9CFE6FFE1CFD9FF8994FB
:10033000400EC96E9EA6FED79E96C96A9EA6FED79F
:100340009E96FE0EDB50C96E9EA6FED79E968984B1
:10035000E552E7CFD9FF1200D9CFE6FFE1CFD9FFB1
:100360008994400EC96E9EA6FED79E96010EC96E58
:100370009EA6FED79E96FE0EDB50C96E9EA6FED7A9
:100380009E968984E552E7CFD9FF12009496949AFD
:10039000220EC66EC78C9E96120092948984320EED
:1003A000E66ED0EC03F0E552979C8E9C140EE66E40
:1003B000D0EC03F0E5528E8CE9DFE66AB4DFE5525B
:1003C000E66ACADFE552E66A82DEE552140EE66EA0
:1003D000D0EC03F0E5523C0EE66E82DFE552140EDF
:1003E000E66ED0EC03F0E5520C0EE66E79DFE552D6
:1003F000140EE66ED0EC03F0E552010EE66E70DFEF
:10040000E552140EE66ED0EC03F0E552060EE66EF1
:0604100067DFE552120057
:0A041600D9CFE6FFE1CFD9FF060EB3
:10042000E126DF6A010EDB6AC80EF36E040EF3CF1D
:10043000DBFF310EF36E050EF3CFDBFFCDEC01F0E9
:100440006BEC01F061EC01F0320EE66E000EE66E30
:100450000F0EE66EF7EC00F0E552E552E552C80EDD
:10046000E66ED0EC03F0E552CDEC01F06BEC01F060
:1004700061EC01F0320EE66E100EE66E0F0EE66EC7
:10048000F7EC00F0E552E552E55266EC01F0320E71
:10049000E66E200EE66E0F0EE66EF7EC00F0E5520B
:1004A000E552E552F29E020EDB6A140EF36E020E66
:1004B000DBCFF4FFF350F45C22E281B002D0030EF4
:1004C000DB6A81B405D0010EF36E030EF3CFDBFFC0
:1004D000030EDB5005E10F01F40E556F010E566F50
:1004E000030EDB0404E1640E0F01556F566BC80E5A
:1004F000E66ED0EC03F0E552020EDB2AD6D7030EEF
:10050000DB5016E1CDEC01F06BEC01F061EC01F099
:10051000320EE66E310EE66E0F0EE66EF7EC00F070
:10052000E552E552E5520F01F40E556F010E566F7C
:10053000030EDB0415E1CDEC01F06BEC01F061EC96
:1005400001F0320EE66E3E0EE66E0F0EE66EF7EC32
:1005500000F0E552E552E552640E0F01556F566BFF
:10056000C80EE66ED0EC03F0E552956A9380808A5F
:10057000C180C182C184C186F292F288F19CF0925E
:10058000F088F198F28E836A8350026E036A800EBF
:10059000021801E1035003E1DE52010EDD6E830417
:1005A00002E1010EDF6E010EDB0409E18DD8C80EF9
:1005B000E66ED0EC03F0E552010EDB6ADF6ADF0481
:1005C00009E165D8C80EE66ED0EC03F0E552DF6AAB
:1005D000010EDB6AD9D7060EE15C02E2E16AE55260
:1005E000E16EE552E7CFD9FF1200D9CFE6FFE1CFA8
:1005F000D9FFE652800E836E55CFE6FFD0EC03F0B4
:10060000E552DF6A070EDF5C14E281B408D03FD800
:1006100055CFE6FFD0EC03F0E55200EF00F0834049
:100620007F0B836E55CFE6FFD0EC03F0E552DF2A57
:10063000E9D7E552E552E7CFD9FF1200D9CFE6FF5F
:10064000E1CFD9FFE652010E836E55CFE6FFD0EC25
:1006500003F0E552DF6A070EDF5C14E281B008D0D8
:1006600033D855CFE6FFD0EC03F0E55200EF00F0B1
:100670008350E824836E55CFE6FFD0EC03F0E552BB
:10068000DF2AE9D7E552E552E7CFD9FF1200D9CFEB
:10069000E6FFE1CFD9FFE652DF6A050EDF5C0FE22D
:1006A000800E836EC80EE66ED0EC03F0E552836ACE
:1006B000C80EE66ED0EC03F0E552DF2AEED7E55225
:1006C000E552E7CFD9FF1200D9CFE6FFE1CFD9FF3E
:1006D000E652DF6A050EDF5C0FE2010E836EC80E84
:1006E000E66ED0EC03F0E552836AC80EE66ED0ECFD
:1006F00003F0E552DF2AEED7E552E552E7CFD9FF06
:020700001200E5
:0E070200B40EF66E000EF76E000EF86E0F01CC
:100710000900F550506F0900F550516F03E1506723
:1007200001D03DD00900F5504B6F0900F5504C6FDA
:100730000900F5504D6F09000900F550E96E0900F8
:10074000F550EA6E090009000900F5504E6F0900E6
:10075000F5504F6F09000900F6CF52FFF7CF53FF56
:10076000F8CF54FF4BCFF6FF4CCFF7FF4DCFF8FF3C
:100770000F014E5302E14F5307E00900F550EE6EB2
:100780004E07F8E24F07F9D752CFF6FF53CFF7FFE6
:1007900054CFF8FF0F015007000E515BBFD7120076
:1007A000FF0EE350056EEF0E01D0F30EE76EE72E5D
:1007B000D7EF03F00C0E046EE76AE72EDDEF03F0CF
:0E07C000042EDCEF03F0052ED5EF03F012003F
:0207CE00600EBB
:1007D000F36E00EE00F00F0E01D81200EA6002D0B6
:0E07E000EE6AFCD7F350E9601200EE6AFCD717
:0207EE001EEEFD
:1007F00000F02EEE00F0F86A019C81EC03F003ECAF
:0A08000000F00BEC02F0FBD7120031
:06080A0057454C434F4D21
:100810004520544F20504F4E470A53454C454354B2
:100820002044494646202020200A5242303D45417E
:1008300053595241353D484152440A45415359208C
:1008400053455454494E470A484152442053455455
:0508500054494E470A67
:020000040030CA
:0100010006F8
:0100020019E4
:010003001EDE
:010005008377
:010006008178
:00000001FF
